{
  "_format": "hh-sol-artifact-1",
  "contractName": "ERC20",
  "sourceName": "contracts/LiamCoin.sol",
  "abi": [
    {
      "inputs": [
        {
          "internalType": "string",
          "name": "name_",
          "type": "string"
        },
        {
          "internalType": "string",
          "name": "symbol_",
          "type": "string"
        },
        {
          "internalType": "uint8",
          "name": "decimals_",
          "type": "uint8"
        }
      ],
      "stateMutability": "nonpayable",
      "type": "constructor"
    },
    {
      "anonymous": false,
      "inputs": [
        {
          "indexed": true,
          "internalType": "address",
          "name": "owner",
          "type": "address"
        },
        {
          "indexed": true,
          "internalType": "address",
          "name": "spender",
          "type": "address"
        },
        {
          "indexed": false,
          "internalType": "uint256",
          "name": "value",
          "type": "uint256"
        }
      ],
      "name": "Approval",
      "type": "event"
    },
    {
      "anonymous": false,
      "inputs": [
        {
          "indexed": true,
          "internalType": "address",
          "name": "from",
          "type": "address"
        },
        {
          "indexed": true,
          "internalType": "address",
          "name": "to",
          "type": "address"
        },
        {
          "indexed": false,
          "internalType": "uint256",
          "name": "value",
          "type": "uint256"
        }
      ],
      "name": "Transfer",
      "type": "event"
    },
    {
      "inputs": [
        {
          "internalType": "address",
          "name": "",
          "type": "address"
        },
        {
          "internalType": "address",
          "name": "",
          "type": "address"
        }
      ],
      "name": "_allowances",
      "outputs": [
        {
          "internalType": "uint256",
          "name": "",
          "type": "uint256"
        }
      ],
      "stateMutability": "view",
      "type": "function"
    },
    {
      "inputs": [
        {
          "internalType": "address",
          "name": "",
          "type": "address"
        }
      ],
      "name": "_balances",
      "outputs": [
        {
          "internalType": "uint256",
          "name": "",
          "type": "uint256"
        }
      ],
      "stateMutability": "view",
      "type": "function"
    },
    {
      "inputs": [
        {
          "internalType": "address",
          "name": "owner",
          "type": "address"
        },
        {
          "internalType": "address",
          "name": "spender",
          "type": "address"
        }
      ],
      "name": "allowance",
      "outputs": [
        {
          "internalType": "uint256",
          "name": "",
          "type": "uint256"
        }
      ],
      "stateMutability": "view",
      "type": "function"
    },
    {
      "inputs": [
        {
          "internalType": "address",
          "name": "spender",
          "type": "address"
        },
        {
          "internalType": "uint256",
          "name": "amount",
          "type": "uint256"
        }
      ],
      "name": "approve",
      "outputs": [
        {
          "internalType": "bool",
          "name": "",
          "type": "bool"
        }
      ],
      "stateMutability": "nonpayable",
      "type": "function"
    },
    {
      "inputs": [
        {
          "internalType": "address",
          "name": "account",
          "type": "address"
        }
      ],
      "name": "balanceOf",
      "outputs": [
        {
          "internalType": "uint256",
          "name": "",
          "type": "uint256"
        }
      ],
      "stateMutability": "view",
      "type": "function"
    },
    {
      "inputs": [],
      "name": "decimals",
      "outputs": [
        {
          "internalType": "uint8",
          "name": "",
          "type": "uint8"
        }
      ],
      "stateMutability": "view",
      "type": "function"
    },
    {
      "inputs": [
        {
          "internalType": "address",
          "name": "spender",
          "type": "address"
        },
        {
          "internalType": "uint256",
          "name": "decreasedValue",
          "type": "uint256"
        }
      ],
      "name": "decreaseAllowance",
      "outputs": [
        {
          "internalType": "bool",
          "name": "",
          "type": "bool"
        }
      ],
      "stateMutability": "nonpayable",
      "type": "function"
    },
    {
      "inputs": [
        {
          "internalType": "address",
          "name": "spender",
          "type": "address"
        },
        {
          "internalType": "uint256",
          "name": "addedValue",
          "type": "uint256"
        }
      ],
      "name": "increaseAllowance",
      "outputs": [
        {
          "internalType": "bool",
          "name": "",
          "type": "bool"
        }
      ],
      "stateMutability": "nonpayable",
      "type": "function"
    },
    {
      "inputs": [],
      "name": "name",
      "outputs": [
        {
          "internalType": "string",
          "name": "",
          "type": "string"
        }
      ],
      "stateMutability": "view",
      "type": "function"
    },
    {
      "inputs": [],
      "name": "symbol",
      "outputs": [
        {
          "internalType": "string",
          "name": "",
          "type": "string"
        }
      ],
      "stateMutability": "view",
      "type": "function"
    },
    {
      "inputs": [],
      "name": "totalSupply",
      "outputs": [
        {
          "internalType": "uint256",
          "name": "",
          "type": "uint256"
        }
      ],
      "stateMutability": "view",
      "type": "function"
    },
    {
      "inputs": [
        {
          "internalType": "address",
          "name": "recipient",
          "type": "address"
        },
        {
          "internalType": "uint256",
          "name": "amount",
          "type": "uint256"
        }
      ],
      "name": "transfer",
      "outputs": [
        {
          "internalType": "bool",
          "name": "",
          "type": "bool"
        }
      ],
      "stateMutability": "nonpayable",
      "type": "function"
    },
    {
      "inputs": [
        {
          "internalType": "address",
          "name": "sender",
          "type": "address"
        },
        {
          "internalType": "address",
          "name": "recipient",
          "type": "address"
        },
        {
          "internalType": "uint256",
          "name": "amount",
          "type": "uint256"
        }
      ],
      "name": "transferFrom",
      "outputs": [
        {
          "internalType": "bool",
          "name": "",
          "type": "bool"
        }
      ],
      "stateMutability": "nonpayable",
      "type": "function"
    }
  ],
  "bytecode": "0x60806040523480156200001157600080fd5b506040516200184a3803806200184a8339818101604052810190620000379190620001c6565b82600390805190602001906200004f9291906200008d565b508160049080519060200190620000689291906200008d565b5080600560006101000a81548160ff021916908360ff160217905550505050620003a6565b8280546200009b90620002f8565b90600052602060002090601f016020900481019282620000bf57600085556200010b565b82601f10620000da57805160ff19168380011785556200010b565b828001600101855582156200010b579182015b828111156200010a578251825591602001919060010190620000ed565b5b5090506200011a91906200011e565b5090565b5b80821115620001395760008160009055506001016200011f565b5090565b6000620001546200014e8462000282565b6200024e565b9050828152602081018484840111156200016d57600080fd5b6200017a848285620002c2565b509392505050565b600082601f8301126200019457600080fd5b8151620001a68482602086016200013d565b91505092915050565b600081519050620001c0816200038c565b92915050565b600080600060608486031215620001dc57600080fd5b600084015167ffffffffffffffff811115620001f757600080fd5b620002058682870162000182565b935050602084015167ffffffffffffffff8111156200022357600080fd5b620002318682870162000182565b92505060406200024486828701620001af565b9150509250925092565b6000604051905081810181811067ffffffffffffffff821117156200027857620002776200035d565b5b8060405250919050565b600067ffffffffffffffff821115620002a0576200029f6200035d565b5b601f19601f8301169050602081019050919050565b600060ff82169050919050565b60005b83811015620002e2578082015181840152602081019050620002c5565b83811115620002f2576000848401525b50505050565b600060028204905060018216806200031157607f821691505b602082108114156200032857620003276200032e565b5b50919050565b7f4e487b7100000000000000000000000000000000000000000000000000000000600052602260045260246000fd5b7f4e487b7100000000000000000000000000000000000000000000000000000000600052604160045260246000fd5b6200039781620002b5565b8114620003a357600080fd5b50565b61149480620003b66000396000f3fe608060405234801561001057600080fd5b50600436106100cf5760003560e01c8063395093511161008c57806395d89b411161006657806395d89b411461024e578063a457c2d71461026c578063a9059cbb1461029c578063dd62ed3e146102cc576100cf565b806339509351146101be5780636ebcf607146101ee57806370a082311461021e576100cf565b8063024c2ddd146100d457806306fdde0314610104578063095ea7b31461012257806318160ddd1461015257806323b872dd14610170578063313ce567146101a0575b600080fd5b6100ee60048036038101906100e99190610daf565b6102fc565b6040516100fb919061122b565b60405180910390f35b61010c610321565b6040516101199190611129565b60405180910390f35b61013c60048036038101906101379190610e3a565b6103b3565b604051610149919061110e565b60405180910390f35b61015a610484565b604051610167919061122b565b60405180910390f35b61018a60048036038101906101859190610deb565b61048e565b604051610197919061110e565b60405180910390f35b6101a86105a9565b6040516101b59190611246565b60405180910390f35b6101d860048036038101906101d39190610e3a565b6105c0565b6040516101e5919061110e565b60405180910390f35b61020860048036038101906102039190610d86565b61063b565b604051610215919061122b565b60405180910390f35b61023860048036038101906102339190610d86565b610653565b604051610245919061122b565b60405180910390f35b61025661069b565b6040516102639190611129565b60405180910390f35b61028660048036038101906102819190610e3a565b61072d565b604051610293919061110e565b60405180910390f35b6102b660048036038101906102b19190610e3a565b6107f1565b6040516102c3919061110e565b60405180910390f35b6102e660048036038101906102e19190610daf565b6108a3565b6040516102f3919061122b565b60405180910390f35b6001602052816000526040600020602052806000526040600020600091509150505481565b6060600380546103309061138f565b80601f016020809104026020016040519081016040528092919081815260200182805461035c9061138f565b80156103a95780601f1061037e576101008083540402835291602001916103a9565b820191906000526020600020905b81548152906001019060200180831161038c57829003601f168201915b5050505050905090565b60008073ffffffffffffffffffffffffffffffffffffffff168373ffffffffffffffffffffffffffffffffffffffff161415610424576040517f08c379a000000000000000000000000000000000000000000000000000000000815260040161041b9061120b565b60405180910390fd5b6000821015610468576040517f08c379a000000000000000000000000000000000000000000000000000000000815260040161045f906111ab565b60405180910390fd5b61047a61047361092a565b8484610932565b6001905092915050565b6000600254905090565b60008082116104d2576040517f08c379a00000000000000000000000000000000000000000000000000000000081526004016104c9906111ab565b60405180910390fd5b816104dc85610653565b101561051d576040517f08c379a0000000000000000000000000000000000000000000000000000000008152600401610514906111eb565b60405180910390fd5b610528848484610afd565b600061053b8561053661092a565b6108a3565b905082811015610580576040517f08c379a0000000000000000000000000000000000000000000000000000000008152600401610577906111cb565b60405180910390fd5b61059d8561058c61092a565b858461059891906112d3565b610932565b60019150509392505050565b6000600560009054906101000a900460ff16905090565b6000808211610604576040517f08c379a00000000000000000000000000000000000000000000000000000000081526004016105fb906111ab565b60405180910390fd5b61063161060f61092a565b848461062261061c61092a565b886108a3565b61062c919061127d565b610932565b6001905092915050565b60006020528060005260406000206000915090505481565b60008060008373ffffffffffffffffffffffffffffffffffffffff1673ffffffffffffffffffffffffffffffffffffffff168152602001908152602001600020549050919050565b6060600480546106aa9061138f565b80601f01602080910402602001604051908101604052809291908181526020018280546106d69061138f565b80156107235780601f106106f857610100808354040283529160200191610723565b820191906000526020600020905b81548152906001019060200180831161070657829003601f168201915b5050505050905090565b6000808211610771576040517f08c379a0000000000000000000000000000000000000000000000000000000008152600401610768906111ab565b60405180910390fd5b600061078461077e61092a565b856108a3565b9050828110156107c9576040517f08c379a00000000000000000000000000000000000000000000000000000000081526004016107c09061118b565b60405180910390fd5b6107e66107d461092a565b8585846107e191906112d3565b610932565b600191505092915050565b6000808211610835576040517f08c379a000000000000000000000000000000000000000000000000000000000815260040161082c906111ab565b60405180910390fd5b8161084661084161092a565b610653565b1015610887576040517f08c379a000000000000000000000000000000000000000000000000000000000815260040161087e906111eb565b60405180910390fd5b61089961089261092a565b8484610afd565b6001905092915050565b6000600160008473ffffffffffffffffffffffffffffffffffffffff1673ffffffffffffffffffffffffffffffffffffffff16815260200190815260200160002060008373ffffffffffffffffffffffffffffffffffffffff1673ffffffffffffffffffffffffffffffffffffffff16815260200190815260200160002054905092915050565b600033905090565b600073ffffffffffffffffffffffffffffffffffffffff168373ffffffffffffffffffffffffffffffffffffffff1614156109a2576040517f08c379a00000000000000000000000000000000000000000000000000000000081526004016109999061116b565b60405180910390fd5b600073ffffffffffffffffffffffffffffffffffffffff168273ffffffffffffffffffffffffffffffffffffffff161415610a12576040517f08c379a0000000000000000000000000000000000000000000000000000000008152600401610a099061120b565b60405180910390fd5b80600160008573ffffffffffffffffffffffffffffffffffffffff1673ffffffffffffffffffffffffffffffffffffffff16815260200190815260200160002060008473ffffffffffffffffffffffffffffffffffffffff1673ffffffffffffffffffffffffffffffffffffffff168152602001908152602001600020819055508173ffffffffffffffffffffffffffffffffffffffff168373ffffffffffffffffffffffffffffffffffffffff167f8c5be1e5ebec7d5bd14f71427d1e84f3dd0314c0f7b2291e5b200ac8c7c3b92583604051610af0919061122b565b60405180910390a3505050565b600073ffffffffffffffffffffffffffffffffffffffff168373ffffffffffffffffffffffffffffffffffffffff161415610b6d576040517f08c379a0000000000000000000000000000000000000000000000000000000008152600401610b649061116b565b60405180910390fd5b600073ffffffffffffffffffffffffffffffffffffffff168273ffffffffffffffffffffffffffffffffffffffff161415610bdd576040517f08c379a0000000000000000000000000000000000000000000000000000000008152600401610bd49061114b565b60405180910390fd5b610be8838383610d52565b6000610bf384610653565b905081811015610c38576040517f08c379a0000000000000000000000000000000000000000000000000000000008152600401610c2f906111eb565b60405180910390fd5b8181610c4491906112d3565b6000808673ffffffffffffffffffffffffffffffffffffffff1673ffffffffffffffffffffffffffffffffffffffff1681526020019081526020016000208190555081610c9084610653565b610c9a919061127d565b6000808573ffffffffffffffffffffffffffffffffffffffff1673ffffffffffffffffffffffffffffffffffffffff168152602001908152602001600020819055508273ffffffffffffffffffffffffffffffffffffffff168473ffffffffffffffffffffffffffffffffffffffff167fddf252ad1be2c89b69c2b068fc378daa952ba7f163c4a11628f55a4df523b3ef84604051610d39919061122b565b60405180910390a3610d4c848484610d57565b50505050565b505050565b505050565b600081359050610d6b81611430565b92915050565b600081359050610d8081611447565b92915050565b600060208284031215610d9857600080fd5b6000610da684828501610d5c565b91505092915050565b60008060408385031215610dc257600080fd5b6000610dd085828601610d5c565b9250506020610de185828601610d5c565b9150509250929050565b600080600060608486031215610e0057600080fd5b6000610e0e86828701610d5c565b9350506020610e1f86828701610d5c565b9250506040610e3086828701610d71565b9150509250925092565b60008060408385031215610e4d57600080fd5b6000610e5b85828601610d5c565b9250506020610e6c85828601610d71565b9150509250929050565b610e7f81611319565b82525050565b6000610e9082611261565b610e9a818561126c565b9350610eaa81856020860161135c565b610eb38161141f565b840191505092915050565b6000610ecb60248361126c565b91507f526563697069656e742063616e6e6f7420626520746865207a65726f2061646460008301527f72657373000000000000000000000000000000000000000000000000000000006020830152604082019050919050565b6000610f3160218361126c565b91507f53656e6465722063616e6e6f7420626520746865207a65726f2061646472657360008301527f73000000000000000000000000000000000000000000000000000000000000006020830152604082019050919050565b6000610f97601c8361126c565b91507f416c6c6f77616e63652063616e6e6f74206265206e65676174697665000000006000830152602082019050919050565b6000610fd7601d8361126c565b91507f416d6f756e74206d7573742062652067726561746572207468616e20300000006000830152602082019050919050565b600061101760168361126c565b91507f496e73756666696369656e7420616c6c6f77616e6365000000000000000000006000830152602082019050919050565b600061105760148361126c565b91507f496e73756666696369656e742062616c616e63650000000000000000000000006000830152602082019050919050565b600061109760228361126c565b91507f5370656e6465722063616e6e6f7420626520746865207a65726f20616464726560008301527f73730000000000000000000000000000000000000000000000000000000000006020830152604082019050919050565b6110f981611345565b82525050565b6111088161134f565b82525050565b60006020820190506111236000830184610e76565b92915050565b600060208201905081810360008301526111438184610e85565b905092915050565b6000602082019050818103600083015261116481610ebe565b9050919050565b6000602082019050818103600083015261118481610f24565b9050919050565b600060208201905081810360008301526111a481610f8a565b9050919050565b600060208201905081810360008301526111c481610fca565b9050919050565b600060208201905081810360008301526111e48161100a565b9050919050565b600060208201905081810360008301526112048161104a565b9050919050565b600060208201905081810360008301526112248161108a565b9050919050565b600060208201905061124060008301846110f0565b92915050565b600060208201905061125b60008301846110ff565b92915050565b600081519050919050565b600082825260208201905092915050565b600061128882611345565b915061129383611345565b9250827fffffffffffffffffffffffffffffffffffffffffffffffffffffffffffffffff038211156112c8576112c76113c1565b5b828201905092915050565b60006112de82611345565b91506112e983611345565b9250828210156112fc576112fb6113c1565b5b828203905092915050565b600061131282611325565b9050919050565b60008115159050919050565b600073ffffffffffffffffffffffffffffffffffffffff82169050919050565b6000819050919050565b600060ff82169050919050565b60005b8381101561137a57808201518184015260208101905061135f565b83811115611389576000848401525b50505050565b600060028204905060018216806113a757607f821691505b602082108114156113bb576113ba6113f0565b5b50919050565b7f4e487b7100000000000000000000000000000000000000000000000000000000600052601160045260246000fd5b7f4e487b7100000000000000000000000000000000000000000000000000000000600052602260045260246000fd5b6000601f19601f8301169050919050565b61143981611307565b811461144457600080fd5b50565b61145081611345565b811461145b57600080fd5b5056fea26469706673582212208bca57b5221337ab80e5a1b76a39976c1ec90b35009634fb85d812a9ff5e317864736f6c63430008000033",
  "linkReferences": {},
  "deployedLinkReferences": {}
}