{
  "_format": "hh-sol-artifact-1",
  "contractName": "LiamCoin",
  "sourceName": "contracts/LiamCoin.sol",
  "abi": [
    {
      "inputs": [],
      "stateMutability": "nonpayable",
      "type": "constructor"
    },
    {
      "anonymous": false,
      "inputs": [
        {
          "indexed": true,
          "internalType": "address",
          "name": "owner",
          "type": "address"
        },
        {
          "indexed": true,
          "internalType": "address",
          "name": "spender",
          "type": "address"
        },
        {
          "indexed": false,
          "internalType": "uint256",
          "name": "value",
          "type": "uint256"
        }
      ],
      "name": "Approval",
      "type": "event"
    },
    {
      "anonymous": false,
      "inputs": [
        {
          "indexed": true,
          "internalType": "address",
          "name": "from",
          "type": "address"
        },
        {
          "indexed": true,
          "internalType": "address",
          "name": "to",
          "type": "address"
        },
        {
          "indexed": false,
          "internalType": "uint256",
          "name": "value",
          "type": "uint256"
        }
      ],
      "name": "Transfer",
      "type": "event"
    },
    {
      "inputs": [
        {
          "internalType": "address",
          "name": "",
          "type": "address"
        },
        {
          "internalType": "address",
          "name": "",
          "type": "address"
        }
      ],
      "name": "_allowances",
      "outputs": [
        {
          "internalType": "uint256",
          "name": "",
          "type": "uint256"
        }
      ],
      "stateMutability": "view",
      "type": "function"
    },
    {
      "inputs": [
        {
          "internalType": "address",
          "name": "",
          "type": "address"
        }
      ],
      "name": "_balances",
      "outputs": [
        {
          "internalType": "uint256",
          "name": "",
          "type": "uint256"
        }
      ],
      "stateMutability": "view",
      "type": "function"
    },
    {
      "inputs": [
        {
          "internalType": "address",
          "name": "owner",
          "type": "address"
        },
        {
          "internalType": "address",
          "name": "spender",
          "type": "address"
        }
      ],
      "name": "allowance",
      "outputs": [
        {
          "internalType": "uint256",
          "name": "",
          "type": "uint256"
        }
      ],
      "stateMutability": "view",
      "type": "function"
    },
    {
      "inputs": [
        {
          "internalType": "address",
          "name": "spender",
          "type": "address"
        },
        {
          "internalType": "uint256",
          "name": "amount",
          "type": "uint256"
        }
      ],
      "name": "approve",
      "outputs": [
        {
          "internalType": "bool",
          "name": "",
          "type": "bool"
        }
      ],
      "stateMutability": "nonpayable",
      "type": "function"
    },
    {
      "inputs": [
        {
          "internalType": "address",
          "name": "account",
          "type": "address"
        }
      ],
      "name": "balanceOf",
      "outputs": [
        {
          "internalType": "uint256",
          "name": "",
          "type": "uint256"
        }
      ],
      "stateMutability": "view",
      "type": "function"
    },
    {
      "inputs": [],
      "name": "decimals",
      "outputs": [
        {
          "internalType": "uint8",
          "name": "",
          "type": "uint8"
        }
      ],
      "stateMutability": "view",
      "type": "function"
    },
    {
      "inputs": [
        {
          "internalType": "address",
          "name": "spender",
          "type": "address"
        },
        {
          "internalType": "uint256",
          "name": "decreasedValue",
          "type": "uint256"
        }
      ],
      "name": "decreaseAllowance",
      "outputs": [
        {
          "internalType": "bool",
          "name": "",
          "type": "bool"
        }
      ],
      "stateMutability": "nonpayable",
      "type": "function"
    },
    {
      "inputs": [
        {
          "internalType": "address",
          "name": "spender",
          "type": "address"
        },
        {
          "internalType": "uint256",
          "name": "addedValue",
          "type": "uint256"
        }
      ],
      "name": "increaseAllowance",
      "outputs": [
        {
          "internalType": "bool",
          "name": "",
          "type": "bool"
        }
      ],
      "stateMutability": "nonpayable",
      "type": "function"
    },
    {
      "inputs": [
        {
          "internalType": "address",
          "name": "account",
          "type": "address"
        },
        {
          "internalType": "uint256",
          "name": "amount",
          "type": "uint256"
        }
      ],
      "name": "mint",
      "outputs": [],
      "stateMutability": "nonpayable",
      "type": "function"
    },
    {
      "inputs": [],
      "name": "name",
      "outputs": [
        {
          "internalType": "string",
          "name": "",
          "type": "string"
        }
      ],
      "stateMutability": "view",
      "type": "function"
    },
    {
      "inputs": [],
      "name": "symbol",
      "outputs": [
        {
          "internalType": "string",
          "name": "",
          "type": "string"
        }
      ],
      "stateMutability": "view",
      "type": "function"
    },
    {
      "inputs": [],
      "name": "totalSupply",
      "outputs": [
        {
          "internalType": "uint256",
          "name": "",
          "type": "uint256"
        }
      ],
      "stateMutability": "view",
      "type": "function"
    },
    {
      "inputs": [
        {
          "internalType": "address",
          "name": "recipient",
          "type": "address"
        },
        {
          "internalType": "uint256",
          "name": "amount",
          "type": "uint256"
        }
      ],
      "name": "transfer",
      "outputs": [
        {
          "internalType": "bool",
          "name": "",
          "type": "bool"
        }
      ],
      "stateMutability": "nonpayable",
      "type": "function"
    },
    {
      "inputs": [
        {
          "internalType": "address",
          "name": "sender",
          "type": "address"
        },
        {
          "internalType": "address",
          "name": "recipient",
          "type": "address"
        },
        {
          "internalType": "uint256",
          "name": "amount",
          "type": "uint256"
        }
      ],
      "name": "transferFrom",
      "outputs": [
        {
          "internalType": "bool",
          "name": "",
          "type": "bool"
        }
      ],
      "stateMutability": "nonpayable",
      "type": "function"
    }
  ],
  "bytecode": "0x60806040523480156200001157600080fd5b506040518060400160405280600881526020017f4c69616d436f696e0000000000000000000000000000000000000000000000008152506040518060400160405280600481526020017f534c414d000000000000000000000000000000000000000000000000000000008152506012826003908051906020019062000098929190620000d6565b508160049080519060200190620000b1929190620000d6565b5080600560006101000a81548160ff021916908360ff160217905550505050620001eb565b828054620000e49062000186565b90600052602060002090601f01602090048101928262000108576000855562000154565b82601f106200012357805160ff191683800117855562000154565b8280016001018555821562000154579182015b828111156200015357825182559160200191906001019062000136565b5b50905062000163919062000167565b5090565b5b808211156200018257600081600090555060010162000168565b5090565b600060028204905060018216806200019f57607f821691505b60208210811415620001b657620001b5620001bc565b5b50919050565b7f4e487b7100000000000000000000000000000000000000000000000000000000600052602260045260246000fd5b6116fe80620001fb6000396000f3fe608060405234801561001057600080fd5b50600436106100ea5760003560e01c806340c10f191161008c57806395d89b411161006657806395d89b4114610285578063a457c2d7146102a3578063a9059cbb146102d3578063dd62ed3e14610303576100ea565b806340c10f19146102095780636ebcf6071461022557806370a0823114610255576100ea565b806318160ddd116100c857806318160ddd1461016d57806323b872dd1461018b578063313ce567146101bb57806339509351146101d9576100ea565b8063024c2ddd146100ef57806306fdde031461011f578063095ea7b31461013d575b600080fd5b61010960048036038101906101049190610f93565b610333565b6040516101169190611495565b60405180910390f35b610127610358565b6040516101349190611373565b60405180910390f35b6101576004803603810190610152919061101e565b6103ea565b6040516101649190611358565b60405180910390f35b6101756104bb565b6040516101829190611495565b60405180910390f35b6101a560048036038101906101a09190610fcf565b6104c5565b6040516101b29190611358565b60405180910390f35b6101c36105e0565b6040516101d091906114b0565b60405180910390f35b6101f360048036038101906101ee919061101e565b6105f7565b6040516102009190611358565b60405180910390f35b610223600480360381019061021e919061101e565b610672565b005b61023f600480360381019061023a9190610f6a565b610680565b60405161024c9190611495565b60405180910390f35b61026f600480360381019061026a9190610f6a565b610698565b60405161027c9190611495565b60405180910390f35b61028d6106e0565b60405161029a9190611373565b60405180910390f35b6102bd60048036038101906102b8919061101e565b610772565b6040516102ca9190611358565b60405180910390f35b6102ed60048036038101906102e8919061101e565b610836565b6040516102fa9190611358565b60405180910390f35b61031d60048036038101906103189190610f93565b6108e8565b60405161032a9190611495565b60405180910390f35b6001602052816000526040600020602052806000526040600020600091509150505481565b606060038054610367906115f9565b80601f0160208091040260200160405190810160405280929190818152602001828054610393906115f9565b80156103e05780601f106103b5576101008083540402835291602001916103e0565b820191906000526020600020905b8154815290600101906020018083116103c357829003601f168201915b5050505050905090565b60008073ffffffffffffffffffffffffffffffffffffffff168373ffffffffffffffffffffffffffffffffffffffff16141561045b576040517f08c379a000000000000000000000000000000000000000000000000000000000815260040161045290611475565b60405180910390fd5b600082101561049f576040517f08c379a000000000000000000000000000000000000000000000000000000000815260040161049690611415565b60405180910390fd5b6104b16104aa61096f565b8484610977565b6001905092915050565b6000600254905090565b6000808211610509576040517f08c379a000000000000000000000000000000000000000000000000000000000815260040161050090611415565b60405180910390fd5b8161051385610698565b1015610554576040517f08c379a000000000000000000000000000000000000000000000000000000000815260040161054b90611455565b60405180910390fd5b61055f848484610b42565b60006105728561056d61096f565b6108e8565b9050828110156105b7576040517f08c379a00000000000000000000000000000000000000000000000000000000081526004016105ae90611435565b60405180910390fd5b6105d4856105c361096f565b85846105cf919061153d565b610977565b60019150509392505050565b6000600560009054906101000a900460ff16905090565b600080821161063b576040517f08c379a000000000000000000000000000000000000000000000000000000000815260040161063290611415565b60405180910390fd5b61066861064661096f565b848461065961065361096f565b886108e8565b61066391906114e7565b610977565b6001905092915050565b61067c8282610d97565b5050565b60006020528060005260406000206000915090505481565b60008060008373ffffffffffffffffffffffffffffffffffffffff1673ffffffffffffffffffffffffffffffffffffffff168152602001908152602001600020549050919050565b6060600480546106ef906115f9565b80601f016020809104026020016040519081016040528092919081815260200182805461071b906115f9565b80156107685780601f1061073d57610100808354040283529160200191610768565b820191906000526020600020905b81548152906001019060200180831161074b57829003601f168201915b5050505050905090565b60008082116107b6576040517f08c379a00000000000000000000000000000000000000000000000000000000081526004016107ad90611415565b60405180910390fd5b60006107c96107c361096f565b856108e8565b90508281101561080e576040517f08c379a0000000000000000000000000000000000000000000000000000000008152600401610805906113f5565b60405180910390fd5b61082b61081961096f565b858584610826919061153d565b610977565b600191505092915050565b600080821161087a576040517f08c379a000000000000000000000000000000000000000000000000000000000815260040161087190611415565b60405180910390fd5b8161088b61088661096f565b610698565b10156108cc576040517f08c379a00000000000000000000000000000000000000000000000000000000081526004016108c390611455565b60405180910390fd5b6108de6108d761096f565b8484610b42565b6001905092915050565b6000600160008473ffffffffffffffffffffffffffffffffffffffff1673ffffffffffffffffffffffffffffffffffffffff16815260200190815260200160002060008373ffffffffffffffffffffffffffffffffffffffff1673ffffffffffffffffffffffffffffffffffffffff16815260200190815260200160002054905092915050565b600033905090565b600073ffffffffffffffffffffffffffffffffffffffff168373ffffffffffffffffffffffffffffffffffffffff1614156109e7576040517f08c379a00000000000000000000000000000000000000000000000000000000081526004016109de906113b5565b60405180910390fd5b600073ffffffffffffffffffffffffffffffffffffffff168273ffffffffffffffffffffffffffffffffffffffff161415610a57576040517f08c379a0000000000000000000000000000000000000000000000000000000008152600401610a4e90611475565b60405180910390fd5b80600160008573ffffffffffffffffffffffffffffffffffffffff1673ffffffffffffffffffffffffffffffffffffffff16815260200190815260200160002060008473ffffffffffffffffffffffffffffffffffffffff1673ffffffffffffffffffffffffffffffffffffffff168152602001908152602001600020819055508173ffffffffffffffffffffffffffffffffffffffff168373ffffffffffffffffffffffffffffffffffffffff167f8c5be1e5ebec7d5bd14f71427d1e84f3dd0314c0f7b2291e5b200ac8c7c3b92583604051610b359190611495565b60405180910390a3505050565b600073ffffffffffffffffffffffffffffffffffffffff168373ffffffffffffffffffffffffffffffffffffffff161415610bb2576040517f08c379a0000000000000000000000000000000000000000000000000000000008152600401610ba9906113b5565b60405180910390fd5b600073ffffffffffffffffffffffffffffffffffffffff168273ffffffffffffffffffffffffffffffffffffffff161415610c22576040517f08c379a0000000000000000000000000000000000000000000000000000000008152600401610c1990611395565b60405180910390fd5b610c2d838383610f36565b6000610c3884610698565b905081811015610c7d576040517f08c379a0000000000000000000000000000000000000000000000000000000008152600401610c7490611455565b60405180910390fd5b8181610c89919061153d565b6000808673ffffffffffffffffffffffffffffffffffffffff1673ffffffffffffffffffffffffffffffffffffffff1681526020019081526020016000208190555081610cd584610698565b610cdf91906114e7565b6000808573ffffffffffffffffffffffffffffffffffffffff1673ffffffffffffffffffffffffffffffffffffffff168152602001908152602001600020819055508273ffffffffffffffffffffffffffffffffffffffff168473ffffffffffffffffffffffffffffffffffffffff167fddf252ad1be2c89b69c2b068fc378daa952ba7f163c4a11628f55a4df523b3ef84604051610d7e9190611495565b60405180910390a3610d91848484610f3b565b50505050565b60008111610dda576040517f08c379a0000000000000000000000000000000000000000000000000000000008152600401610dd190611415565b60405180910390fd5b600073ffffffffffffffffffffffffffffffffffffffff168273ffffffffffffffffffffffffffffffffffffffff161415610e4a576040517f08c379a0000000000000000000000000000000000000000000000000000000008152600401610e41906113d5565b60405180910390fd5b610e5660008383610f36565b80610e6083610698565b610e6a91906114e7565b6000808473ffffffffffffffffffffffffffffffffffffffff1673ffffffffffffffffffffffffffffffffffffffff1681526020019081526020016000208190555080600254610eba91906114e7565b6002819055508173ffffffffffffffffffffffffffffffffffffffff16600073ffffffffffffffffffffffffffffffffffffffff167fddf252ad1be2c89b69c2b068fc378daa952ba7f163c4a11628f55a4df523b3ef83604051610f1e9190611495565b60405180910390a3610f3260008383610f3b565b5050565b505050565b505050565b600081359050610f4f8161169a565b92915050565b600081359050610f64816116b1565b92915050565b600060208284031215610f7c57600080fd5b6000610f8a84828501610f40565b91505092915050565b60008060408385031215610fa657600080fd5b6000610fb485828601610f40565b9250506020610fc585828601610f40565b9150509250929050565b600080600060608486031215610fe457600080fd5b6000610ff286828701610f40565b935050602061100386828701610f40565b925050604061101486828701610f55565b9150509250925092565b6000806040838503121561103157600080fd5b600061103f85828601610f40565b925050602061105085828601610f55565b9150509250929050565b61106381611583565b82525050565b6000611074826114cb565b61107e81856114d6565b935061108e8185602086016115c6565b61109781611689565b840191505092915050565b60006110af6024836114d6565b91507f526563697069656e742063616e6e6f7420626520746865207a65726f2061646460008301527f72657373000000000000000000000000000000000000000000000000000000006020830152604082019050919050565b60006111156021836114d6565b91507f53656e6465722063616e6e6f7420626520746865207a65726f2061646472657360008301527f73000000000000000000000000000000000000000000000000000000000000006020830152604082019050919050565b600061117b6022836114d6565b91507f4163636f756e742063616e6e6f7420626520746865207a65726f20616464726560008301527f73730000000000000000000000000000000000000000000000000000000000006020830152604082019050919050565b60006111e1601c836114d6565b91507f416c6c6f77616e63652063616e6e6f74206265206e65676174697665000000006000830152602082019050919050565b6000611221601d836114d6565b91507f416d6f756e74206d7573742062652067726561746572207468616e20300000006000830152602082019050919050565b60006112616016836114d6565b91507f496e73756666696369656e7420616c6c6f77616e6365000000000000000000006000830152602082019050919050565b60006112a16014836114d6565b91507f496e73756666696369656e742062616c616e63650000000000000000000000006000830152602082019050919050565b60006112e16022836114d6565b91507f5370656e6465722063616e6e6f7420626520746865207a65726f20616464726560008301527f73730000000000000000000000000000000000000000000000000000000000006020830152604082019050919050565b611343816115af565b82525050565b611352816115b9565b82525050565b600060208201905061136d600083018461105a565b92915050565b6000602082019050818103600083015261138d8184611069565b905092915050565b600060208201905081810360008301526113ae816110a2565b9050919050565b600060208201905081810360008301526113ce81611108565b9050919050565b600060208201905081810360008301526113ee8161116e565b9050919050565b6000602082019050818103600083015261140e816111d4565b9050919050565b6000602082019050818103600083015261142e81611214565b9050919050565b6000602082019050818103600083015261144e81611254565b9050919050565b6000602082019050818103600083015261146e81611294565b9050919050565b6000602082019050818103600083015261148e816112d4565b9050919050565b60006020820190506114aa600083018461133a565b92915050565b60006020820190506114c56000830184611349565b92915050565b600081519050919050565b600082825260208201905092915050565b60006114f2826115af565b91506114fd836115af565b9250827fffffffffffffffffffffffffffffffffffffffffffffffffffffffffffffffff038211156115325761153161162b565b5b828201905092915050565b6000611548826115af565b9150611553836115af565b9250828210156115665761156561162b565b5b828203905092915050565b600061157c8261158f565b9050919050565b60008115159050919050565b600073ffffffffffffffffffffffffffffffffffffffff82169050919050565b6000819050919050565b600060ff82169050919050565b60005b838110156115e45780820151818401526020810190506115c9565b838111156115f3576000848401525b50505050565b6000600282049050600182168061161157607f821691505b602082108114156116255761162461165a565b5b50919050565b7f4e487b7100000000000000000000000000000000000000000000000000000000600052601160045260246000fd5b7f4e487b7100000000000000000000000000000000000000000000000000000000600052602260045260246000fd5b6000601f19601f8301169050919050565b6116a381611571565b81146116ae57600080fd5b50565b6116ba816115af565b81146116c557600080fd5b5056fea2646970667358221220debdbb55b0d90e224137c1b874dce15f64bea906ade119bf8ee507a7b935b0b464736f6c63430008000033",
  "linkReferences": {},
  "deployedLinkReferences": {}
}